:020000040800F2
:10000000000006200D2B0008932700089527000804
:1000100097270008992700089B2700080000000088
:10002000000000000000000000000000710D00084A
:100030009D27000800000000110E00089F270008FF
:10004000552B0008552B0008552B0008552B000890
:10005000552B0008552B0008552B0008552B000880
:10006000552B0008552B0008552B0008552B000870
:10007000552B0008552B0008552B0008552B000860
:10008000552B0008552B0008552B0008552B000850
:10009000552B0008552B0008552B0008552B000840
:1000A000552B0008552B0008552B0008552B000830
:1000B000552B0008552B0008552B0008552B000820
:1000C000552B0008552B0008552B0008552B000810
:1000D000552B0008552B0008552B0008552B000800
:1000E000552B0008552B0008552B0008552B0008F0
:1000F000552B0008552B0008552B0008552B0008E0
:10010000552B0008552B0008552B0008552B0008CF
:10011000552B0008552B0008552B0008A727000871
:10012000552B0008552B0008552B0008552B0008AF
:10013000552B0008552B0008552B0008552B00089F
:10014000552B0008552B0008552B0008552B00088F
:10015000552B0008552B000800000000552B000807
:10016000552B0008552B000800000000000000007F
:10017000552B0008552B0008552B000800000000E7
:1001800000000000552B0008552B0008552B0008D7
:10019000552B0008000000000000000000000000D7
:1001A000000000000000000000000000552B0008C7
:1001B000552B000800000000552B0008000000002F
:1001C000000000000000000000000000000000002F
:1001D0000000000000000000552B0008552B00080F
:1001E000552B0008552B0008552B0008552B0008EF
:1001F000552B0008552B0008552B0008552B0008DF
:0C020000552B0008552B0008552B00085A
:1002100010B5054C237833B9044B13B10448AFF340
:1002200000800123237010BD3C040020000000006A
:10023000242D000808B5034B1BB103490348AFF355
:10024000008008BD0000000040040020242D0008AC
:1002500053B94AB9002908BF00281CBF4FF0FF312D
:100260004FF0FF3000F074B9ADF1080C6DE904CE29
:1002700000F006F8DDF804E0DDE9022304B0704781
:100280002DE9F047089D04468E46002B4DD18A4249
:10029000944669D9B2FA82F252B101FA02F3C2F17C
:1002A000200120FA01F10CFA02FC41EA030E94400D
:1002B0004FEA1C48210CBEFBF8F61FFA8CF708FB2E
:1002C00016E341EA034306FB07F199420AD91CEB06
:1002D000030306F1FF3080F01F81994240F21C8138
:1002E000023E63445B1AA4B2B3FBF8F008FB103380
:1002F00044EA034400FB07F7A7420AD91CEB0404B5
:1003000000F1FF3380F00A81A74240F20781644484
:10031000023840EA0640E41B00261DB1D440002309
:10032000C5E900433146BDE8F0878B4209D9002D6D
:1003300000F0EF800026C5E9000130463146BDE8F7
:10034000F087B3FA83F6002E4AD18B4202D3824261
:1003500000F2F980841A61EB030301209E46002D10
:10036000E0D0C5E9004EDDE702B9FFDEB2FA82F265
:10037000002A40F09280A1EB0C014FEA1C471FFAC3
:100380008CFE0126200CB1FBF7F307FB131140EAAA
:1003900001410EFB03F0884208D91CEB010103F177
:1003A000FF3802D2884200F2CB804346091AA4B239
:1003B000B1FBF7F007FB101144EA01440EFB00FE0D
:1003C000A64508D91CEB040400F1FF3102D2A64572
:1003D00000F2BB800846A4EB0E0440EA03409CE711
:1003E000C6F12007B34022FA07FC4CEA030C20FABE
:1003F00007F401FA06F31C43F9404FEA1C4900FADE
:1004000006F3B1FBF9F8200C1FFA8CFE09FB18115A
:1004100040EA014108FB0EF0884202FA06F20BD9CD
:100420001CEB010108F1FF3A80F08880884240F21D
:100430008580A8F102086144091AA4B2B1FBF9F061
:1004400009FB101144EA014100FB0EFE8E4508D95C
:100450001CEB010100F1FF346CD28E456AD90238E1
:10046000614440EA0840A0FB0294A1EB0E01A142C6
:10047000C846A64656D353D05DB1B3EB080261EB34
:100480000E0101FA07F722FA06F3F1401F43C5E90E
:10049000007100263146BDE8F087C2F12003D84044
:1004A0000CFA02FC21FA03F3914001434FEA1C4786
:1004B0001FFA8CFEB3FBF7F007FB10360B0C43EA78
:1004C000064300FB0EF69E4204FA02F408D91CEB28
:1004D000030300F1FF382FD29E422DD90238634426
:1004E0009B1B89B2B3FBF7F607FB163341EA0341C6
:1004F00006FB0EF38B4208D91CEB010106F1FF3815
:1005000016D28B4214D9023E6144C91A46EA00460B
:1005100038E72E46284605E70646E3E61846F8E69D
:100520004B45A9D2B9EB020864EB0C0E0138A3E7E6
:100530004646EAE7204694E74046D1E7D0467BE7C7
:10054000023B614432E7304609E76444023842E73F
:10055000704700BF844641EA000313F003036DD1E6
:10056000403A41D351F8043B40F8043B51F8043B76
:1005700040F8043B51F8043B40F8043B51F8043B7D
:1005800040F8043B51F8043B40F8043B51F8043B6D
:1005900040F8043B51F8043B40F8043B51F8043B5D
:1005A00040F8043B51F8043B40F8043B51F8043B4D
:1005B00040F8043B51F8043B40F8043B51F8043B3D
:1005C00040F8043B51F8043B40F8043B51F8043B2D
:1005D00040F8043B51F8043B40F8043B51F8043B1D
:1005E00040F8043B403ABDD2303211D351F8043BBD
:1005F00040F8043B51F8043B40F8043B51F8043BFD
:1006000040F8043B51F8043B40F8043B103AEDD26B
:100610000C3205D351F8043B40F8043B043AF9D2BC
:10062000043208D0D2071CBF11F8013B00F8013B8F
:1006300001D30B8803806046704700BF082A13D39C
:100640008B078DD010F003038AD0C3F10403D21AB4
:10065000DB071CBF11F8013B00F8013B80D331F8E8
:10066000023B20F8023B7BE7043AD9D3013A11F868
:10067000013B00F8013BF9D20B7803704B784370D3
:100680008B78837060467047174AD2F8883043F4FD
:100690007003C2F88830154A136843F001031360F1
:1006A000124B1B6813F0020FFAD0104B9A686FF3CD
:1006B00001029A600D4B9B6813F00C0FFAD10B4BA3
:1006C0001A6822F0867222F480321A6000229A6040
:1006D00007495960C3F8A0204FF41F02DA60024BAB
:1006E0004FF000629A60704700ED00E00038024071
:1006F0000230030010B500F055F901281AD0022885
:1007000026D018B1214B224A1A6016E0214BD3F8AB
:10071000A03013F4804F09D01E4BD3F8A03013F44F
:10072000805F03D0194B1C4A1A6006E0174B184A29
:100730001A6002E0154B194A1A60164B9B68C3F306
:100740000313174AD15C114A1368CB40136010BDE4
:10075000104B58685968C1F388115A6802F00F02AB
:100760005B68C3F302430F4CE35C10F4800F0AD1C3
:10077000074803FB02F20023A1FB0001FFF768FD1D
:10078000024B1860D9E70548F3E700BF00000020DE
:1007900000127A0000380240006CDC020024F400F1
:1007A000442D00083C2D0008124A136843F0010351
:1007B0001360104B1B6813F0020FFAD00D4B9A68B0
:1007C0006FF301029A600B4B9B6813F00C0FFAD188
:1007D000084B1A6822F0867222F480321A600022D6
:1007E0009A6005495960C3F8A0204FF41F02DA60EF
:1007F000704700BF0038024002300300030C03F1D1
:10080000804303F50E331A6800F01F00012303FA3A
:1008100000F030EA020301D0002070470120704749
:1008200010B500241120FFF7E9FF012804D0B4F52A
:10083000405F01D20134F5E71120FFF7DFFF012807
:1008400000D0002010BD01290ED0030C03F180431D
:1008500003F50E331A6800F01F00012101FA00F0C1
:1008600022EA000018607047030C03F1804303F58F
:100870000E331A6800F01F0001FA00F010431860F0
:1008800070470000042821D8DFE800F003090F15A5
:100890001B000F4B1A6861F300021A6070470C4B83
:1008A0001A6861F310421A607047094B1A6861F3C5
:1008B00018621A607047064B1A6F61F300021A67DC
:1008C0007047034B5A6F61F300025A67704700BFCD
:1008D00000380240024B9A6860F307129A60704732
:1008E00000380240024B9A6860F38C229A6070478D
:1008F00000380240024B9A6860F34F329A607047AA
:1009000000380240012807D0074BD3F8A4206FF32A
:100910000512C3F8A4207047034AD2F8A43043F06C
:100920003003C2F8A43070470038024010B4844647
:1009300030B90D4CD4F8A00040F48050C4F8A000A9
:10094000094844686CF396544460446861F38E141B
:100950004460416862F303014160426863F31242FC
:1009600042605DF8044B7047003802400C4B9A68B7
:1009700060F301029A6000BF00BF00BF00BF00BF6C
:1009800000BF00BF00BF00BF00BF00BF00BF00BF6F
:1009900000BF00BF00BF00BF00BF00BF00BF704767
:1009A00000380240024B9868C0F38100704700BFD6
:1009B0000038024038B50446FFF7F4FF012817D08D
:1009C000022830D010B1264B236013E0254BD3F81A
:1009D000A03013F4804F08D0224BD3F8A03013F48A
:1009E000805F02D0204B236004E01D4B236001E0B8
:1009F0001E4B23601B4A9368C3F303131C49C95C55
:100A00002368CB4063609168C1F382211948415C3F
:100A100023FA01F1E1609268C2F3423216498A5C1E
:100A2000D340A36038BD0F4B58685968C1F3881193
:100A30005A6802F00F025B68C3F302430F4DEB5C90
:100A400010F4800F09D1064803FB02F20023A1FB3A
:100A50000001FFF7FDFB2060CCE70448F4E700BF8E
:100A600000127A0000380240006CDC020024F4001E
:100A70006C2D0008542D00085C2D0008642D000822
:100A800030B50C88002302E0640801339BB2002CCF
:100A90003CD014F0010FF7D005684FEA430C032255
:100AA00002FA0CF225EA02050560056891F806E0F5
:100AB0000EFA0CFE45EA0E05056045684FF0010E82
:100AC0000EFA03FE25EA0E054560456891F804E03C
:100AD0000EFA03FE45EA0E054560856825EA020523
:100AE0008560856891F807E00EFA0CFE45EA0E0570
:100AF0008560C56825EA0202C260C26891F805E017
:100B00000EFA0CFC42EA0C02C260BDE730BD4FF6A3
:100B1000FF73036000238371037143710123C37169
:100B200070478161704781627047000000B51E4BBD
:100B3000DB68C3F30223C3F1070CBCF1040F28BF29
:100B40004FF0040C03F1040EBEF1060F22D9033B53
:100B50004FF0FF3E0EFA0CFC21EA0C0199400EFA10
:100B600003F322EA03031943002815DB0901C9B284
:100B700000F1604303F5614383F80013002807DBAD
:100B800000F01F02400901239340084A42F8203038
:100B90005DF804FB0023DBE700F00F020901C9B296
:100BA000034B9954EAE700BF00ED00E000E100E0EC
:100BB00014ED00E0074AD36823F4E0631B041B0C28
:100BC000000200F4E060034343F0BF6343F40033EA
:100BD000D360704700ED00E0036861F30003036039
:100BE0007047C1628262436943F001034361704709
:100BF000036861F3061303607047012A05D01AB930
:100C0000C36823EA0101C1607047C3681943C1602A
:100C1000704703690B4204D0C3680B4203D1002024
:100C200070470020704701207047C9430161704739
:100C300000F1080343604FF0FF328260C36003613C
:100C400000230360704700230361704743684B60D3
:100C50009A688A6051609960086103680133036093
:100C6000704730B40D68B5F1FF3F11D000F10803B3
:100C70001C465B681A68AA42FAD963684B6099609F
:100C80008C606160086103680133036030BC7047A9
:100C90000469F2E70369416882688A6041685160CB
:100CA0005A68824206D0002202611A68013A1A602C
:100CB0001868704782685A60F5E7000082B0002328
:100CC00001930D4B1B68B3F1FF3F08D04FF0500369
:100CD00083F31188BFF36F8FBFF34F8FFEE74FF0A1
:100CE000500383F31188BFF36F8FBFF34F8F019BC6
:100CF000002BFCD002B070470400002008480068B8
:100D0000006880F308884FF0000080F3148862B612
:100D100061B6BFF34F8FBFF36F8F00DF00BF0000DE
:100D200008ED00E0DFF80C00016841F4700101609B
:100D30007047000088ED00E04FF0807340F8043CFD
:100D400021F0010140F8081C054B40F80C3C40F82C
:100D5000202C6FF0020340F8243C4438704700BF59
:100D6000BD0C0008000000000000000000000000B2
:100D7000074B19680868B0E8F04F80F30988BFF3A3
:100D80006F8F4FF0000080F311887047AFF3008041
:100D9000C02C00204FF0500383F31188BFF36F8FF6
:100DA000BFF34F8F0B4A136801331360012B00D040
:100DB00070474FF0E023D3F8043D13F0FF0FF7D056
:100DC0004FF0500383F31188BFF36F8FBFF34F8F42
:100DD000FEE700BF04000020094B1B6843B94FF039
:100DE000500383F31188BFF36F8FBFF34F8FFEE77C
:100DF000013B034A13600BB983F31188704700BFAE
:100E000004000020000000000000000000000000BE
:100E1000EFF30980BFF36F8F154B1A681EF0100FA8
:100E200008BF20ED108A20E9F04F10602DE909007D
:100E30004FF0500080F31188BFF34F8FBFF36F8FD7
:100E400001F00CF94FF0000080F3118809BC19681B
:100E50000868B0E8F04F1EF0100F08BFB0EC108A21
:100E600080F30988BFF36F8F704700BFAFF3008036
:100E7000C02C002008B54FF0500383F31188BFF356
:100E80006F8FBFF34F8F00F0BBFF28B14FF0E0230F
:100E90004FF08052C3F8042D002383F3118808BD5E
:100EA0004FF0E022002313619361054B1B68054955
:100EB000A1FB03139B09013B536107231361704797
:100EC00000000020D34D62104FF0E023D3F8002D36
:100ED0003D4B9A421CD04FF0E023D3F8002D3B4B02
:100EE0009A421ED030B583B0394B1A78D2B20192F3
:100EF000FF221A701B78DBB28DF803309DF80330A7
:100F000003F05003334A1370334B07221A601BE07F
:100F10004FF0500383F31188BFF36F8FBFF34F8FF0
:100F2000FEE74FF0500383F31188BFF36F8FBFF3D9
:100F30004F8FFEE7284A1368013B13609DF803308A
:100F40005B00DBB28DF803309DF8033013F0800FA7
:100F5000F0D1214B1B68032B08D04FF0500383F3D3
:100F60001188BFF36F8FBFF34F8FFEE71B021A4A42
:100F7000136003F4E0631360019BDBB2144A137047
:100F80004FF0E024D4F8203D43F47003C4F8203D32
:100F9000D4F8203D43F07043C4F8203DFFF780FFB4
:100FA00000250E4B1D60FFF7BDFED4F8343F43F023
:100FB0004043C4F8343FFFF7A1FE01F04FF8FFF7BC
:100FC0007DFE284603B030BD71C20F4170C20F4193
:100FD00000E400E0580400205C040020040000202D
:100FE000EFF305830F2B0FD9114A9B5CDBB2114A3B
:100FF00012789A4208D94FF0500383F31188BFF357
:101000006F8FBFF34F8FFEE74FF0E023D3F80C3D17
:1010100003F4E063084A1268934208D94FF0500382
:1010200083F31188BFF36F8FBFF34F8FFEE77047D5
:10103000F0E300E0580400205C040020124A12F0A3
:10104000070F1ED0D11D21F00701C1F52053134415
:101050000A460E480260002141601344083B23F019
:1010600007030B48036059601960991A51601360B7
:10107000084B1960084B1960084B4FF000421A608A
:1010800070474FF42053E4E764040020782C0020DC
:10109000600400206C2C0020682C0020642C0020B0
:1010A000164B1A461B688342FBD3516802EB010CB6
:1010B000844509D0416800EB010C634509D0036009
:1010C000904219D01060704740680144516010464A
:1010D000F0E710B40A4C2468A3420BD05B681944B3
:1010E000416013681B680360904200D010605DF897
:1010F000044B70470460F7E7704700BF782C00206E
:101100006004002038B5044600F06CFE3B4B1B68C1
:10111000DBB13B4B1B681C4255D1631E13F10A0F18
:1011200053D804F1080214F0070F05D022F007038A
:101130000833934258D91A46002A57D0314B1B68BE
:10114000934255D330490C6804E0FFF777FFE0E79E
:1011500021461C466368934202D22368002BF7D1D4
:10116000264B1B68A34245D00D68083523680B60E9
:1011700063689B1A102B10D9A01810F0070F08D025
:101180004FF0500383F31188BFF36F8FBFF34F8F7E
:10119000FEE743606260FFF783FF626819490B68EE
:1011A0009B1A0B60194909688B4201D217490B60E1
:1011B000134B1B681343636000232360144A1368B6
:1011C0000133136002E0002500E0002500F0A4FEDA
:1011D00015F0070F10D04FF0500383F31188BFF3C1
:1011E0006F8FBFF34F8FFEE70025EFE70025EDE798
:1011F0000025EBE70025E9E7284638BD600400201C
:10120000642C0020682C0020782C00206C2C0020FE
:10121000702C0020002834D038B50446A0F1080511
:1012200050F8043C174A1268134208D14FF050039B
:1012300083F31188BFF36F8FBFF34F8FFEE750F832
:10124000081C41B14FF0500383F31188BFF36F8F37
:10125000BFF34F8FFEE723EA020340F8043C00F09F
:10126000C1FD54F8041C084A13680B441360284657
:10127000FFF716FF054A13680133136000F04CFEB8
:1012800038BD7047642C0020682C0020742C00208E
:1012900010B50446FFF77EFDA26BE36B9A4204D0C3
:1012A0000024FFF799FD204610BD0124F9E710B591
:1012B0000446FFF76FFDA36B23B90124FFF78CFDF4
:1012C000204610BD0024F9E770B504461546866B2C
:1012D000026C5AB903681BB100200136A66370BDC9
:1012E000806800F0E5FF0023A360F6E76DB9406871
:1012F000FFF730F9226C636813446360A26893427D
:1013000019D3236863602846E7E7C068FFF722F92E
:10131000226C5142E3689B1AE3602268934202D236
:10132000A3680B44E360022D01D00020D5E726B16D
:10133000013E0020D1E72846CFE70020CDE7034655
:10134000026C6AB110B50846D9681144D9609C682E
:10135000A14201D31968D960D968FFF7FBF810BD25
:10136000704738B50546FFF715FD95F8454064B25E
:1013700001E0013C64B2002C0ADD6B6A43B105F167
:10138000240000F0E9FE0028F3D000F07BFFF0E736
:10139000FF2385F84530FFF71FFDFFF7FBFC95F8AD
:1013A000444064B201E0013C64B2002C0ADD2B69C8
:1013B00043B105F1100000F0CFFE0028F3D000F09B
:1013C00061FFF0E7FF2385F84430FFF705FD38BDE6
:1013D00038B5E0B10D460446FFF7DCFC2368E26B4C
:1013E000216C01FB0230A0600020A0636360013A21
:1013F00002FB0133E360FF2384F8443084F8453076
:10140000FDB9236963B9FFF7E7FC012038BD4FF050
:10141000500383F31188BFF36F8FBFF34F8FFEE745
:1014200004F1100000F098FE0028ECD04FF0E0230B
:101430004FF08052C3F8042DBFF34F8FBFF36F8F6F
:10144000E1E704F11000FFF7F3FB04F12400FFF7DC
:10145000EFFBD8E738B51D46049C0B4649B924601C
:10146000E063236401212046FFF7B2FF84F84C506B
:1014700038BD2260F4E740B94FF0500383F3118880
:10148000BFF36F8FBFF34F8FFEE710B584B01C46DC
:10149000844653B192B189B94FF0500383F3118858
:1014A000BFF36F8FBFF34F8FFEE74FF0500383F30F
:1014B0001188BFF36F8FBFF34F8FFEE76AB15023E0
:1014C0000393039B502B13D04FF0500383F31188E9
:1014D000BFF36F8FBFF34F8FFEE70029EFD04FF0C0
:1014E000500383F31188BFF36F8FBFF34F8FFEE775
:1014F000039B012384F8463000949DF81830604621
:10150000FFF7A8FF204604B010BDF0B585B00192EA
:1015100088B10F461D460446B1B1022D20D1E36BC0
:10152000012B1DD04FF0500383F31188BFF36F8F51
:10153000BFF34F8FFEE74FF0500383F31188BFF3E3
:101540006F8FBFF34F8FFEE7036C002BE5D04FF09A
:10155000500383F31188BFF36F8FBFF34F8FFEE704
:1015600000F096FE064658B9019B002B48D04FF07C
:10157000500383F31188BFF36F8FBFF34F8FFEE7E4
:1015800000263DE02A4639462046FFF79DFE636A65
:101590007BB948B14FF0E0234FF08052C3F8042DDF
:1015A000BFF34F8FBFF36F8FFFF716FC012005B01D
:1015B000F0BD04F1240000F0CFFD0028F4D04FF07E
:1015C000E0234FF08052C3F8042DBFF34F8FBFF3D9
:1015D0006F8FE9E7FFF700FC0020E8E702A800F0C2
:1015E00001FE012619E0002384F8443021E00023A5
:1015F00084F8453023E02046FFF7B3FE00F08CFC72
:10160000FFF7C8FBA26BE36B9A42BBD3022DB9D0A4
:10161000019B002BDED0002EE0D0FFF7DDFB00F0B9
:10162000E1FBFFF7B7FB94F8442052B2B2F1FF3F61
:10163000D9D094F8452052B2B2F1FF3FD7D0FFF78E
:10164000CBFB01A902A800F0D9FDD8B92046FFF7CD
:101650001FFE0028CFD0019904F1100000F048FDD2
:101660002046FFF77EFE00F057FC0028C8D14FF05F
:10167000E0234FF08052C3F8042DBFF34F8FBFF328
:101680006F8FBDE72046FFF76CFE00F045FC0020A1
:101690008DE72DE9F84390B10F4616461C460546E6
:1016A000B1B1022C20D1EB6B012B1DD04FF05003B8
:1016B00083F31188BFF36F8FBFF34F8FFEE74FF0B7
:1016C000500383F31188BFF36F8FBFF34F8FFEE793
:1016D000036C002BE5D04FF0500383F31188BFF368
:1016E0006F8FBFF34F8FFEE7FFF77AFCEFF311899F
:1016F0004FF0500383F31188BFF36F8FBFF34F8F09
:10170000AA6BEB6B9A4206D3022C04D0002089F31B
:101710001188BDE8F88395F845804FFA88F8AB6BDF
:10172000224639462846FFF7CFFDB8F1FF3F09D0E2
:10173000B8F17F0F13D008F101035BB285F8453093
:101740000120E4E76B6A0BB90120E0E705F1240012
:1017500000F002FD60B16EB101203060D7E74FF0BC
:10176000500383F31188BFF36F8FBFF34F8FFEE7F2
:101770000120CCE70120CAE7F0B585B0019290B115
:101780000F460446C1B100F083FD064600BB019B35
:10179000002B5ED04FF0500383F31188BFF36F8F9F
:1017A000BFF34F8FFEE74FF0500383F31188BFF371
:1017B0006F8FBFF34F8FFEE7036C002BE3D04FF02A
:1017C000500383F31188BFF36F8FBFF34F8FFEE792
:1017D00000263EE039462046FFF7B1FD013DA563F6
:1017E000236923B9FFF7F8FA012005B0F0BD04F131
:1017F000100000F0B1FC0028F4D04FF0E0234FF0CF
:101800008052C3F8042DBFF34F8FBFF36F8FE9E70A
:10181000FFF7E2FA0020E8E702A800F0E3FC012667
:1018200021E0002384F8443029E0002384F8453087
:101830002BE02046FFF795FD00F06EFB09E0204607
:10184000FFF78FFD00F068FB2046FFF730FD002812
:101850003FD1FFF79FFAA56B002DBBD1019B002B59
:10186000D6D0002ED8D0FFF7B7FA00F0BBFAFFF7BA
:1018700091FA94F844305BB2B3F1FF3FD1D094F8C1
:1018800045305BB2B3F1FF3FCFD0FFF7A5FA01A916
:1018900002A800F0B3FC0028D1D12046FFF707FDD5
:1018A0000028C6D0019904F1240000F021FC204654
:1018B000FFF757FD00F030FB0028CAD14FF0E023BE
:1018C0004FF08052C3F8042DBFF34F8FBFF36F8FDB
:1018D000BFE7002089E700000023072B0CD8074A48
:1018E00052F833200AB10133F7E7044A42F83310C3
:1018F00002EBC30358607047704700BF802C002084
:1019000070B504460D461646FFF744FA94F8443085
:101910005BB2B3F1FF3F0DD094F845305BB2B3F149
:10192000FF3F0BD0FFF758FAA36B5BB12046FFF7E0
:1019300018FD70BD002384F84430EDE7002384F8DF
:101940004530EFE73246294604F1240000F0E8FB79
:10195000ECE70000074B1B681B6823B9064B4FF0F0
:10196000FF321A607047034B1B68DB681A68024B32
:101970001A607047C42C00204C2E00202DE9F0473F
:1019800080460D4617469946089EDDF824A00A9C1D
:101990009200A521206B01F003F9236B07F180422F
:1019A000013A03EB820727F00707B5B34FF0000CAD
:1019B000BCF10F0F0BD815F80C2004EB0C0383F8C7
:1019C000342015F80C3013B10CF1010CF0E70023B2
:1019D00084F843300F2E00D90F26E662E664002516
:1019E0002565201DFFF72FF904F11800FFF72BF9EB
:1019F0002461C6F11006A6616462656584F85850DA
:101A00004A4641463846FFF797F92060BAF1000F81
:101A100001D0CAF80040BDE8F087002384F83430D4
:101A2000D8E7000038B5002407E004EB84029300F7
:101A30000E481844FFF7FCF801340F2CF5D90C4D73
:101A40002846FFF7F5F80B4C2046FFF7F1F80A4857
:101A5000FFF7EEF80948FFF7EBF80948FFF7E8F859
:101A6000084B1D60084B1C6038BD00BFCC2C00200B
:101A7000202E0020342E0020582E0020842E0020FE
:101A8000702E0020C42C0020C82C002010B5044665
:101A9000FFF780F9224A136801331360214B1B685A
:101AA0005BB1214B1B686BB91E4B1B68DA6AE36A9A
:101AB0009A4207D81B4B1C6004E01A4B1C60136849
:101AC000012B29D0194A1368013313606364E06A5B
:101AD000174B1B68984201D9154B186000EB80002A
:101AE000211D144B03EB8000FFF7B0F8FFF774F9EA
:101AF0000D4B1B687BB10B4B1B68DA6AE36A9A4299
:101B000009D24FF0E0234FF08052C3F8042DBFF309
:101B10004F8FBFF36F8F10BDFFF784FFD2E700BF79
:101B20000C2E0020C02C00206C2E0020182E00202F
:101B30001C2E0020CC2C002010B5044690F8593003
:101B400063B1012B11D0022B0ED04FF0500383F361
:101B50001188BFF36F8FBFF34F8FFEE7006BFFF766
:101B600059FB2046FFF756FB10BDFFF753FBFBE781
:101B70000F4B1B68D3B110B5FFF70CF90D4BDB68A9
:101B8000DC68201DFFF786F80B4A1368013B1360E1
:101B9000074A1368013B1360FFF71EF92046FFF761
:101BA000CBFF034B1B68002BE6D110BD704700BF75
:101BB000102E0020842E00200C2E002008B5FFF7E8
:101BC000D7FF074B1B68012BF9D94FF0E0234FF0EB
:101BD0008052C3F8042DBFF34F8FBFF36F8FEEE732
:101BE000CC2C002070B504460D46174B1E68174BD1
:101BF00018680430FFF74EF8B4F1FF3F0DD03444BD
:101C0000124B1B685C60A64210D9114B18680F4B31
:101C100019680431FFF725F870BD002DEFD00B4B8C
:101C2000196804310B48FFF711F8F5E70A4B1868FB
:101C3000064B19680431FFF714F8084B1B68A342E0
:101C4000EAD9064B1C60E7E7982E0020C02C002044
:101C5000C82C0020702E0020C42C00204C2E002008
:101C600030B587B00B9C7CB10C9DB5B15C2504955B
:101C7000049D5C2D1AD04FF0500383F31188BFF3FD
:101C80006F8FBFF34F8FFEE74FF0500383F3118840
:101C9000BFF36F8FBFF34F8FFEE74FF0500383F317
:101CA0001188BFF36F8FBFF34F8FFEE7049D0C9D2C
:101CB0002C63022485F8594000240394029505AC56
:101CC00001940A9C0094FFF759FE0C98FFF7DEFE82
:101CD000059807B030BD2DE9F04385B0074688462A
:101CE00014461E469000FFF70DFA00B381465C20B3
:101CF000FFF708FA0546B0B1C0F83090E5B100230F
:101D000085F85930039302950D9B01930C9B00932A
:101D10003346224641463846FFF730FE2846FFF755
:101D2000B5FE012005E04846FFF774FAE6E74FF0FC
:101D3000FF3005B0BDE8F0834FF0FF30F9E7000059
:101D400010B588B000240594069407AA06A905A832
:101D500000F00AFE059B0293069B01930094234624
:101D6000079A19491948FFF77BFF194B186050B1C2
:101D700000F052FB012808D0B0F1FF3F1AD0154BFC
:101D80001B6808B010BD0020F4E74FF0500383F348
:101D90001188BFF36F8FBFF34F8F0F4B4FF0FF32A0
:101DA0001A600E4B01221A600D4B00221A60FFF7D9
:101DB0008BF8E4E74FF0500383F31188BFF36F8F84
:101DC000BFF34F8FFEE700BF7C2D0008BD1B00084E
:101DD000482E0020080000204C2E00206C2E0020F1
:101DE000982E0020024A136801331360704700BF29
:101DF000142E0020014B1868704700BF982E002059
:101E0000F8B53A4B1B68002B69D1394B1D68013579
:101E10001D60C5B9374B1B681B6843B14FF05003B9
:101E200083F31188BFF36F8FBFF34F8FFEE7314A03
:101E30001168314B186810601960304A136801331B
:101E40001360FFF787FD2E4B1B68AB423DD900277F
:101E50002C4B1B68DB6A03EB83039A002A4B9B58CD
:101E6000012B00D90127294B1B68002B3CD00127EF
:101E70003AE001271F4B1B681B6843B31D4B1B68CF
:101E8000DB68DC6863689D4226D3261D3046FEF77A
:101E900001FFA36A1BB104F11800FEF7FBFEE36A21
:101EA0001B4A1268934201D9194A136003EB83035A
:101EB0009A00314614481044FEF7C8FEE26A114BFE
:101EC0001B68DB6A9A42D4D2D4E70027D2E70C4BD6
:101ED0004FF0FF321A60BBE7094A1360B8E70D4ABA
:101EE00013680133136000273846F8BD142E002014
:101EF000982E0020C42C0020C82C0020502E00203A
:101F00004C2E0020C02C0020CC2C00209C2E002029
:101F10001C2E0020542E002038B5354B1B6843B9C9
:101F20004FF0500383F31188BFF36F8FBFF34F8FD0
:101F3000FEE7FEF72FFF2E4B1A68013A1A601B6866
:101F4000002B4FD12B4B1B680BB900244BE0002416
:101F5000294B1B681BB3284BDB68DC6804F11800B5
:101F6000FEF798FE251D2846FEF794FEE06A234BF7
:101F70001B68984201D9214B186000EB800029466C
:101F80001F4B03EB8000FEF761FEE26A1D4B1B68EE
:101F9000DB6A9A42DCD31C4B01221A60D8E70CB1F1
:101FA000FFF7D8FC194B1C6884B9174B1C68D4B1D7
:101FB0004FF0E0234FF08052C3F8042DBFF34F8F52
:101FC000BFF36F8F01240EE0013C07D0FFF718FF2D
:101FD0000028F9D00C4B01221A60F5E70B4B0022C8
:101FE0001A60E2E70024FEF7F7FE204638BD00BF86
:101FF000142E00200C2E0020582E00201C2E002015
:10200000CC2C0020C02C00209C2E0020542E002020
:1020100010B5A8B10446104B1B6843B14FF05003F4
:1020200083F31188BFF36F8FBFF34F8FFEE7FFF786
:10203000D9FE00212046FFF7D5FDFFF76DFF48B917
:102040004FF0E0234FF08052C3F8042DBFF34F8FC1
:10205000BFF36F8F10BD00BF142E00201F4B1B68F5
:102060001BB11F4B01221A6070471D4B00221A60E2
:102070001C4B1B6803EB83018A001B498A585AB921
:102080000BB1013BF6E74FF0500383F31188BFF328
:102090006F8FBFF34F8FFEE703EB830082000A448C
:1020A00050684068506003EB830C4FEA8C020832A2
:1020B000114488420BD003EB830291000A4A0A4480
:1020C0005268D168094A1160064A13607047406837
:1020D00062469100044A0A445060ECE7142E002046
:1020E0009C2E00201C2E0020CC2C0020C02C002078
:1020F00058B110B50C46094A11681831FEF7B1FD08
:1021000001212046FFF76EFD10BD4FF0500383F311
:102110001188BFF36F8FBFF34F8FFEE7C02C0020F5
:1021200038B570B10D4614460A4A11681831FEF7E9
:102130008DFD0CB14FF0FF3521462846FFF752FDCB
:1021400038BD4FF0500383F31188BFF36F8FBFF397
:102150004F8FFEE7C02C002038B5C368DC6824B37D
:1021600004F118052846FEF795FD184B1B682BBB9C
:10217000251D2846FEF78EFDE06A154B1B68984228
:1021800001D9134B186000EB80002946114B03EB7B
:102190008000FEF75BFDE26A0F4B1B68DB6A9A4228
:1021A00011D901200D4B186038BD4FF0500383F357
:1021B0001188BFF36F8FBFF34F8FFEE729460848A2
:1021C000FEF744FDE7E70020EEE700BF142E0020F5
:1021D0001C2E0020CC2C0020C02C00209C2E002087
:1021E000582E0020034B1B680360034B1B684360A1
:1021F000704700BF502E0020982E0020F8B5B8B1CF
:102200000C460546E9B1FEF7C5FD1C4B19686B6825
:10221000C81A2268B2F1FF3F2AD0194E36682F68DB
:10222000B74217D08B4215D800232360012420E049
:102230004FF0500383F31188BFF36F8FBFF34F8FBD
:10224000FEE74FF0500383F31188BFF36F8FBFF3A6
:102250004F8FFEE7824203D800232360012408E069
:102260005B1A134423602846FFF7BCFF002400E0FC
:102270000024FEF7B1FD2046F8BD00BF982E0020D7
:10228000502E0020014B01221A6070479C2E002026
:10229000054B1B6833B1054B1B680BB10020704721
:1022A00002207047012070476C2E0020142E002061
:1022B00000283BD038B504461E4B1B68834208D02B
:1022C0004FF0500383F31188BFF36F8FBFF34F8F2D
:1022D000FEE7036D43B94FF0500383F31188BFF35A
:1022E0006F8FBFF34F8FFEE7013B0365C16AC26C7E
:1022F00091421DD00BB1002038BD051D2846FEF7C8
:10230000C9FCE06CE062C0F11003A3610A4B1B68DA
:10231000984201D9084B186000EB80002946074B12
:1023200003EB8000FEF792FC0120E5E700207047F8
:102330000020E1E7C02C00201C2E0020CC2C002027
:10234000064B1A6813682BB90123036023B9D368BD
:10235000186870470023F8E700207047A02E00207F
:1023600008B54160006191420CD8D21A83699A4243
:1023700001D3012008BD011D094B1868FEF771FC4F
:102380000020F7E79A4201D2994206D2011D054B7F
:102390001868FEF766FC0020ECE70120EAE700BFC2
:1023A000A42E0020A02E002030B583B0FEF7F2FC52
:1023B000114B1B681BB1FEF70FFD03B030BD0F4D75
:1023C0002846FEF735FC0E4C2046FEF731FC0D4B3F
:1023D0001D600D4B1C60002300930C4B0C4A102118
:1023E0000A20FFF748F8044B18600028E3D0094999
:1023F000FFF772FADFE700BFC42F0020482F00204C
:102400005C2F0020A02E0020A42E0020742F00207E
:10241000A82E0020842D000810B588B0FFF7C4FF57
:10242000124B1B68CBB100240594069407AA06A999
:1024300005A800F0A5FA059B0293069B01930223D1
:1024400000932346079A0A490A48FFF709FC0A4BFA
:10245000186010B1012008B010BD4FF0500383F395
:102460001188BFF36F8FBFF34F8FFEE7C42F00209B
:102470008C2D00087D270008C82F0020B8B19C468D
:1024800003461848006858B300B585B00091019222
:10249000029305291CDCFFF7FBFE022810D0002365
:1024A0001A4669460F480068FFF72FF815E04FF00D
:1024B000500383F31188BFF36F8FBFF34F8FFEE795
:1024C0000023069A694607480068FFF71EF804E0F3
:1024D000002362466946FFF7DCF805B05DF804FBAF
:1024E00000207047C42F002070B582B01B4B1B68C2
:1024F0001A6862B3DB681E68DC68251D2846FEF793
:10250000C9FB236A2046984794F8283013F0040F3B
:10251000ECD0A36933449E4207D26360246129460C
:102520000E4B1868FEF79DFBE0E7002100910B467B
:1025300032462046FFF7A2FF0028D7D14FF05003C4
:1025400083F31188BFF36F8FBFF34F8FFEE7044A09
:10255000106802490860136002B070BDA02E002010
:10256000A42E002038B50546FFF744FC0446074B6F
:102570001B68834205D800232B60044B1C60204657
:1025800038BDFFF7B1FF01232B60F6E7702F002065
:1025900070B582B006460D4617490968C968CC680F
:1025A000201DFEF777FB94F828C01CF0040F08D11B
:1025B0002CF0010C84F828C0236A2046984702B00A
:1025C00070BDA16933462A4631442046FFF7C8FE54
:1025D0000028F1D0002100910B4632462046FFF73B
:1025E0004DFF0028E8D14FF0500383F31188BFF36B
:1025F0006F8FBFF34F8FFEE7A02E002070B582B023
:1026000006460C46FFF7EEFB01A8FFF7ABFF019B68
:1026100033BB05460CB9B04219D224B1124A126834
:102620001268DAB901242246711B104B1868FFF7B3
:1026300067F9FFF771FCA8B94FF0E0234FF0805223
:10264000C3F8042DBFF34F8FBFF36F8F0AE0FFF77E
:1026500063FC29463046FFF79BFF03E01C46E2E798
:10266000FFF75AFC02B070BDA42E0020C42F00203A
:1026700010B588B002E0049B002B0FDA002204A9F9
:102680003D4B1868FFF778F8002873D0049B002BA7
:10269000F1DA07990698059B9847ECE7069C636971
:1026A00013B1201DFEF7F6FA03A8FFF75BFF049BAA
:1026B000092BE3D8DFE803F00505053037500505A1
:1026C000303794F8283043F0010384F82830059B14
:1026D000A169024619442046FFF742FE0028CDD0EA
:1026E000236A2046984794F8283013F0040FC5D089
:1026F000A269002100910B46059802442046FFF78D
:10270000BDFE0028BAD14FF0500383F31188BFF308
:102710006F8FBFF34F8FFEE794F8283023F001034B
:1027200084F82830AAE794F8283043F0010384F8AD
:1027300028300599A16131B1034602460144204683
:10274000FFF70EFE9AE74FF0500383F31188BFF3B3
:102750006F8FBFF34F8FFEE794F8283013F0020F0E
:1027600004D023F0010384F8283087E72046FEF7E1
:1027700051FD83E708B010BDC42F002000B583B021
:1027800001A8FFF7DDFD0199FFF738FFFFF770FFA4
:10279000F6E77047FEE7FEE7FEE7FEE7704708B59D
:1027A000FEF768FB08BD08B500F09EF908BD000003
:1027B00008B5FDF7F9FF01212748FEF744F8274B3C
:1027C0001A69012161F302021A6103F5E6331A6EF8
:1027D00061F301021A660420FEF754F82048FEF760
:1027E0000DF80128FAD101210846FEF74BF8FEF753
:1027F00017F80028FBD001210020FEF743F8012044
:10280000FDF7FCFF0128FAD10223012248211046DE
:10281000FEF78CF801210220FEF734F81920FDF7AD
:10282000EDFF0128FAD10020FEF754F80420FEF74E
:1028300061F80420FEF756F80120FEF763F8022045
:10284000FEF794F8FEF7AEF80228FBD10020FEF761
:1028500059F8FDF74FFF08BD1C0040000070004014
:102860000100740008B501214FF44010FDF7EBFFA3
:1028700001210648FDF7E7FF01210548FDF7E3FFC9
:1028800001210448FDF7DFFF08BD00BF0200300052
:10289000070030000500400008B50320FEF78AF964
:1028A000244BDA6800221A76D9685A76D9689A7663
:1028B000D968DA77D96883F82020DA68C2F302226F
:1028C000C2F10703042B28BF04231946131D062B4E
:1028D0002BD9033A4FF0FF338B40DB4303F00F0358
:1028E00093401B01DBB2134A82F82230D268C2F354
:1028F0000222C2F10703042B28BF04231946131D2B
:10290000062B14D9033A4FF0FF338B40DB4303F01F
:102910000F0393401B01DBB2064A82F823300022EA
:1029200005213720FEF702F908BD0022D2E7002278
:10293000E9E700BF00ED00E008B50A4C4FF4005194
:102940002046FEF7F0F84FF4FA60FFF761FB4FF412
:1029500000512046FEF7E5F84FF4FA60FFF758FB08
:10296000EBE700BF00080240034B0360034B0B6022
:1029700080231360704700BFCC310020CC2F002093
:10298000034B0360034B0B604FF48073136070477D
:10299000283600202832002000B583B0054B019373
:1029A00000230093802204490448FFF794F903B000
:1029B0005DF804FB84360020942D000839290008B6
:1029C00008B5FEF7E7F9FFF7E7FFFEF705FAFFF7AF
:1029D000B7F908BD08B5FFF7EBFEFFF743FFFFF7B8
:1029E0005BFF00F05BF800F019F8FFF7E9FF40F635
:1029F000B83000F043F8084C4FF400512046FEF781
:102A000092F840F6B83000F039F84FF40051204603
:102A1000FEF787F8EBE700BF0008024010B582B070
:102A20006846FEF774F80D4C4FF400512046FEF74F
:102A30007AF802238DF8073000238DF80430012244
:102A40008DF806204FF4005200928DF8053069464B
:102A50002046FEF715F802B010BD00BF0008024086
:102A6000024A136801331360704700BF88360020A4
:102A7000014B1868704700BF8836002038B50446FF
:102A8000FFF7F6FF0546B4F1FF3F00D00134FFF732
:102A9000EFFF401BA042FAD338BD000010B584B050
:102AA0006846FDF787FF039A52000D4BA3FB0232E5
:102AB000920C0C4C013A40F2E7312046FEF791F8B7
:102AC00000212046FEF794F8012211462046FEF729
:102AD00094F801212046FEF77FF804B010BD00BF36
:102AE00083DE1B430014004008B501210648FEF7B1
:102AF00090F8012800D008BD01210348FEF795F8A1
:102B0000FFF7AEFFF7E700BF00140040002103E02D
:102B10000B4B5B58435004310A480B4B42189A4206
:102B2000F6D30A4A02E0002342F8043B084B9A42DB
:102B3000F9D3FDF7A9FD00F00FF8FFF74BFF704741
:102B4000BC2D0008000000203C0400203C040020B4
:102B500090360020FEE7000070B50D4E0D4D761B3F
:102B6000B61006D0002455F8043B01349847A6421D
:102B7000F9D1094E094D761B00F0D4F8B61006D0F5
:102B8000002455F8043B01349847A642F9D170BDA2
:102B9000B02D0008B02D0008B82D0008B02D000899
:102BA000830730B548D0541E002A3FD0CAB203462E
:102BB00001E0013C3AD303F8012B9D07F9D1032C26
:102BC0002DD9CDB245EA05250F2C45EA054536D964
:102BD000A4F1100222F00F0C03F1200EE6444FEA9C
:102BE000121C03F1100242E9045542E90255103269
:102BF0007245F8D10CF1010214F00C0F03EB021234
:102C000004F00F0C13D0ACF1040323F003030433DE
:102C1000134442F8045B9342FBD10CF003042CB143
:102C2000CAB21C4403F8012B9C42FBD130BD644660
:102C30001346002CF4D1F9E703461446BFE71A46C1
:102C4000A446E0E7024B13B1024800F005B8704714
:102C500000000000652C0008002301461A461846B3
:102C600000F01AB838B5084B084D5B1B9C1007D014
:102C7000043B1D44013C55F804399847002CF9D118
:102C8000BDE8384000F054B8BC2D0008B82D00084D
:102C9000704700BF704700BF2DE9F047DFF880A004
:102CA0000646DAF8000098460F469146FFF7F0FF17
:102CB0001A4B1B68D3F8484124B365681F2D26DCE6
:102CC0005EB96B1C0235DAF80000636044F82570C9
:102CD000FFF7E0FF0020BDE8F08704EB850101234A
:102CE000C1F88890D4F88821AB401A43022EC4F86A
:102CF0008821C1F80881E4D1D4F88C211343C4F8A9
:102D00008C31DEE703F5A674C3F84841D5E7DAF85D
:102D10000000FFF7BFFF4FF0FF30DCE7A42D0008F5
:102D200038040020F8B500BFF8BC08BC9E467047C8
:0C2D3000F8B500BFF8BC08BC9E46704718
:102D3C000102040810200000000000000000000048
:102D4C000102030406070809000000000102030445
:102D5C00000000000102030401020408102000001E
:102D6C00000000000000000001020304060708092F
:102D7C0049444C4500000000546D725100000000A5
:102D8C00546D722053766300757365725F69646C61
:0C2D9C00655F7461736B00001000002084
:082DA800D8D4FF7F01000000F8
:082DB000452C00083502000863
:042DB80011020008FC
:102DBC0000127A00AAAAAAAA0F00000000000000C4
:102DCC0000000000FC02002064030020CC03002063
:102DDC0000000000000000000000000000000000E7
:102DEC0000000000000000000000000000000000D7
:102DFC0000000000000000000000000000000000C7
:102E0C0000000000000000000000000000000000B6
:102E1C0000000000000000000000000000000000A6
:102E2C000000000000000000000000000000000096
:102E3C000000000000000000000000000000000086
:102E4C000000000000000000000000000000000076
:102E5C000000000000000000000000000000000066
:102E6C000000000000000000010000000000000055
:102E7C000E33CDAB34126DE6ECDE05000B0000001A
:102E8C000000000000000000000000000000000036
:102E9C000000000000000000000000000000000026
:102EAC000000000000000000000000000000000016
:102EBC000000000000000000000000000000000006
:0C31EC0000000000000000008C360020F5
:0400000508002B0DB7
:00000001FF
